{
  "_format": "hh-sol-artifact-1",
  "contractName": "Tracking",
  "sourceName": "contracts/Tracking.sol",
  "abi": [
    {
      "inputs": [],
      "stateMutability": "nonpayable",
      "type": "constructor"
    },
    {
      "anonymous": false,
      "inputs": [
        {
          "indexed": true,
          "internalType": "address",
          "name": "sender",
          "type": "address"
        },
        {
          "indexed": true,
          "internalType": "address",
          "name": "reciever",
          "type": "address"
        },
        {
          "indexed": false,
          "internalType": "uint256",
          "name": "pickupTime",
          "type": "uint256"
        },
        {
          "indexed": false,
          "internalType": "uint256",
          "name": "distance",
          "type": "uint256"
        },
        {
          "indexed": false,
          "internalType": "uint256",
          "name": "price",
          "type": "uint256"
        }
      ],
      "name": "ShipmentCreated",
      "type": "event"
    },
    {
      "anonymous": false,
      "inputs": [
        {
          "indexed": true,
          "internalType": "address",
          "name": "sender",
          "type": "address"
        },
        {
          "indexed": true,
          "internalType": "address",
          "name": "reciever",
          "type": "address"
        },
        {
          "indexed": false,
          "internalType": "uint256",
          "name": "deliveryTime",
          "type": "uint256"
        }
      ],
      "name": "ShipmentDelivered",
      "type": "event"
    },
    {
      "anonymous": false,
      "inputs": [
        {
          "indexed": true,
          "internalType": "address",
          "name": "sender",
          "type": "address"
        },
        {
          "indexed": true,
          "internalType": "address",
          "name": "reciever",
          "type": "address"
        },
        {
          "indexed": false,
          "internalType": "uint256",
          "name": "pickupTime",
          "type": "uint256"
        }
      ],
      "name": "ShipmentInTransit",
      "type": "event"
    },
    {
      "anonymous": false,
      "inputs": [
        {
          "indexed": true,
          "internalType": "address",
          "name": "sender",
          "type": "address"
        },
        {
          "indexed": true,
          "internalType": "address",
          "name": "reciever",
          "type": "address"
        },
        {
          "indexed": false,
          "internalType": "uint256",
          "name": "amount",
          "type": "uint256"
        }
      ],
      "name": "ShipmentPaid",
      "type": "event"
    },
    {
      "inputs": [],
      "name": "ShipmentCount",
      "outputs": [
        {
          "internalType": "uint256",
          "name": "",
          "type": "uint256"
        }
      ],
      "stateMutability": "view",
      "type": "function"
    },
    {
      "inputs": [
        {
          "internalType": "address",
          "name": "_sender",
          "type": "address"
        },
        {
          "internalType": "address",
          "name": "_receiver",
          "type": "address"
        },
        {
          "internalType": "uint256",
          "name": "_index",
          "type": "uint256"
        }
      ],
      "name": "completesShipment",
      "outputs": [],
      "stateMutability": "nonpayable",
      "type": "function"
    },
    {
      "inputs": [
        {
          "internalType": "address",
          "name": "_reciever",
          "type": "address"
        },
        {
          "internalType": "uint256",
          "name": "_pickupTime",
          "type": "uint256"
        },
        {
          "internalType": "uint256",
          "name": "_distance",
          "type": "uint256"
        },
        {
          "internalType": "uint256",
          "name": "_price",
          "type": "uint256"
        }
      ],
      "name": "createShipment",
      "outputs": [],
      "stateMutability": "payable",
      "type": "function"
    },
    {
      "inputs": [],
      "name": "getAllTransactions",
      "outputs": [
        {
          "components": [
            {
              "internalType": "address",
              "name": "sender",
              "type": "address"
            },
            {
              "internalType": "address",
              "name": "reciever",
              "type": "address"
            },
            {
              "internalType": "uint256",
              "name": "pickupTime",
              "type": "uint256"
            },
            {
              "internalType": "uint256",
              "name": "deliveryTime",
              "type": "uint256"
            },
            {
              "internalType": "uint256",
              "name": "distance",
              "type": "uint256"
            },
            {
              "internalType": "uint256",
              "name": "price",
              "type": "uint256"
            },
            {
              "internalType": "enum Tracking.ShipmentStatus",
              "name": "status",
              "type": "uint8"
            },
            {
              "internalType": "bool",
              "name": "isPaid",
              "type": "bool"
            }
          ],
          "internalType": "struct Tracking.TypeShipment[]",
          "name": "",
          "type": "tuple[]"
        }
      ],
      "stateMutability": "view",
      "type": "function"
    },
    {
      "inputs": [
        {
          "internalType": "address",
          "name": "_sender",
          "type": "address"
        },
        {
          "internalType": "uint256",
          "name": "_index",
          "type": "uint256"
        }
      ],
      "name": "getShipment",
      "outputs": [
        {
          "internalType": "address",
          "name": "",
          "type": "address"
        },
        {
          "internalType": "address",
          "name": "",
          "type": "address"
        },
        {
          "internalType": "uint256",
          "name": "",
          "type": "uint256"
        },
        {
          "internalType": "uint256",
          "name": "",
          "type": "uint256"
        },
        {
          "internalType": "uint256",
          "name": "",
          "type": "uint256"
        },
        {
          "internalType": "uint256",
          "name": "",
          "type": "uint256"
        },
        {
          "internalType": "enum Tracking.ShipmentStatus",
          "name": "",
          "type": "uint8"
        },
        {
          "internalType": "bool",
          "name": "",
          "type": "bool"
        }
      ],
      "stateMutability": "view",
      "type": "function"
    },
    {
      "inputs": [
        {
          "internalType": "address",
          "name": "_sender",
          "type": "address"
        }
      ],
      "name": "getShipmentCount",
      "outputs": [
        {
          "internalType": "uint256",
          "name": "",
          "type": "uint256"
        }
      ],
      "stateMutability": "view",
      "type": "function"
    },
    {
      "inputs": [
        {
          "internalType": "address",
          "name": "",
          "type": "address"
        },
        {
          "internalType": "uint256",
          "name": "",
          "type": "uint256"
        }
      ],
      "name": "shipments",
      "outputs": [
        {
          "internalType": "address",
          "name": "sender",
          "type": "address"
        },
        {
          "internalType": "address",
          "name": "reciever",
          "type": "address"
        },
        {
          "internalType": "uint256",
          "name": "pickupTime",
          "type": "uint256"
        },
        {
          "internalType": "uint256",
          "name": "deliveryTime",
          "type": "uint256"
        },
        {
          "internalType": "uint256",
          "name": "distance",
          "type": "uint256"
        },
        {
          "internalType": "uint256",
          "name": "price",
          "type": "uint256"
        },
        {
          "internalType": "enum Tracking.ShipmentStatus",
          "name": "status",
          "type": "uint8"
        },
        {
          "internalType": "bool",
          "name": "isPaid",
          "type": "bool"
        }
      ],
      "stateMutability": "view",
      "type": "function"
    },
    {
      "inputs": [
        {
          "internalType": "address",
          "name": "_sender",
          "type": "address"
        },
        {
          "internalType": "uint256",
          "name": "_index",
          "type": "uint256"
        },
        {
          "internalType": "address",
          "name": "_receiver",
          "type": "address"
        }
      ],
      "name": "startShipment",
      "outputs": [],
      "stateMutability": "nonpayable",
      "type": "function"
    }
  ],
  "bytecode": "0x608060405234801561001057600080fd5b50600060018190555061199b806100286000396000f3fe60806040526004361061007b5760003560e01c80638b4b26b81161004e5780638b4b26b81461015c5780638c76b44b14610185578063b7dfd93d146101b0578063cbc4b181146101ed5761007b565b806317e2157f1461008057806327506f53146100a95780635667e02f146100d45780638365da5414610118575b600080fd5b34801561008c57600080fd5b506100a760048036038101906100a291906111c1565b610209565b005b3480156100b557600080fd5b506100be610465565b6040516100cb9190611416565b60405180910390f35b3480156100e057600080fd5b506100fb60048036038101906100f69190611438565b6105ef565b60405161010f9897969594939291906114b4565b60405180910390f35b34801561012457600080fd5b5061013f600480360381019061013a9190611438565b6106ae565b6040516101539897969594939291906114b4565b60405180910390f35b34801561016857600080fd5b50610183600480360381019061017e9190611532565b610898565b005b34801561019157600080fd5b5061019a610c6c565b6040516101a79190611585565b60405180910390f35b3480156101bc57600080fd5b506101d760048036038101906101d291906115a0565b610c72565b6040516101e49190611585565b60405180910390f35b610207600480360381019061020291906115cd565b610cbd565b005b60008060008573ffffffffffffffffffffffffffffffffffffffff1673ffffffffffffffffffffffffffffffffffffffff168152602001908152602001600020838154811061025b5761025a611634565b5b9060005260206000209060070201905060006002848154811061028157610280611634565b5b906000526020600020906007020190508273ffffffffffffffffffffffffffffffffffffffff168260010160009054906101000a900473ffffffffffffffffffffffffffffffffffffffff1673ffffffffffffffffffffffffffffffffffffffff1614610323576040517f08c379a000000000000000000000000000000000000000000000000000000000815260040161031a906116c0565b60405180910390fd5b600060028111156103375761033661125e565b5b8260060160009054906101000a900460ff16600281111561035b5761035a61125e565b5b1461039b576040517f08c379a00000000000000000000000000000000000000000000000000000000081526004016103929061172c565b60405180910390fd5b60018260060160006101000a81548160ff021916908360028111156103c3576103c261125e565b5b021790555060018160060160006101000a81548160ff021916908360028111156103f0576103ef61125e565b5b02179055508273ffffffffffffffffffffffffffffffffffffffff168573ffffffffffffffffffffffffffffffffffffffff167faafab9f94340179ff9cefd29621e1772a4b8efab8023163838f1b0a8f6ce5df584600201546040516104569190611585565b60405180910390a35050505050565b60606002805480602002602001604051908101604052809291908181526020016000905b828210156105e65783829060005260206000209060070201604051806101000160405290816000820160009054906101000a900473ffffffffffffffffffffffffffffffffffffffff1673ffffffffffffffffffffffffffffffffffffffff1673ffffffffffffffffffffffffffffffffffffffff1681526020016001820160009054906101000a900473ffffffffffffffffffffffffffffffffffffffff1673ffffffffffffffffffffffffffffffffffffffff1673ffffffffffffffffffffffffffffffffffffffff168152602001600282015481526020016003820154815260200160048201548152602001600582015481526020016006820160009054906101000a900460ff1660028111156105a6576105a561125e565b5b60028111156105b8576105b761125e565b5b81526020016006820160019054906101000a900460ff16151515158152505081526020019060010190610489565b50505050905090565b6000602052816000526040600020818154811061060b57600080fd5b9060005260206000209060070201600091509150508060000160009054906101000a900473ffffffffffffffffffffffffffffffffffffffff16908060010160009054906101000a900473ffffffffffffffffffffffffffffffffffffffff16908060020154908060030154908060040154908060050154908060060160009054906101000a900460ff16908060060160019054906101000a900460ff16905088565b60008060008060008060008060008060008c73ffffffffffffffffffffffffffffffffffffffff1673ffffffffffffffffffffffffffffffffffffffff1681526020019081526020016000208a8154811061070c5761070b611634565b5b9060005260206000209060070201604051806101000160405290816000820160009054906101000a900473ffffffffffffffffffffffffffffffffffffffff1673ffffffffffffffffffffffffffffffffffffffff1673ffffffffffffffffffffffffffffffffffffffff1681526020016001820160009054906101000a900473ffffffffffffffffffffffffffffffffffffffff1673ffffffffffffffffffffffffffffffffffffffff1673ffffffffffffffffffffffffffffffffffffffff168152602001600282015481526020016003820154815260200160048201548152602001600582015481526020016006820160009054906101000a900460ff16600281111561081f5761081e61125e565b5b60028111156108315761083061125e565b5b81526020016006820160019054906101000a900460ff1615151515815250509050806000015181602001518260400151836060015184608001518560a001518660c001518760e0015198509850985098509850985098509850509295985092959890939650565b60008060008573ffffffffffffffffffffffffffffffffffffffff1673ffffffffffffffffffffffffffffffffffffffff16815260200190815260200160002082815481106108ea576108e9611634565b5b906000526020600020906007020190506000600283815481106109105761090f611634565b5b906000526020600020906007020190508373ffffffffffffffffffffffffffffffffffffffff168260010160009054906101000a900473ffffffffffffffffffffffffffffffffffffffff1673ffffffffffffffffffffffffffffffffffffffff16146109b2576040517f08c379a00000000000000000000000000000000000000000000000000000000081526004016109a9906116c0565b60405180910390fd5b600160028111156109c6576109c561125e565b5b8260060160009054906101000a900460ff1660028111156109ea576109e961125e565b5b14610a2a576040517f08c379a0000000000000000000000000000000000000000000000000000000008152600401610a2190611798565b60405180910390fd5b8160060160019054906101000a900460ff1615610a7c576040517f08c379a0000000000000000000000000000000000000000000000000000000008152600401610a7390611804565b60405180910390fd5b60028260060160006101000a81548160ff02191690836002811115610aa457610aa361125e565b5b021790555060028160060160006101000a81548160ff02191690836002811115610ad157610ad061125e565b5b02179055504281600301819055504282600301819055506000826005015490508260000160009054906101000a900473ffffffffffffffffffffffffffffffffffffffff1673ffffffffffffffffffffffffffffffffffffffff166108fc829081150290604051600060405180830381858888f19350505050158015610b5b573d6000803e3d6000fd5b5060018360060160016101000a81548160ff02191690831515021790555060018260060160016101000a81548160ff0219169083151502179055508473ffffffffffffffffffffffffffffffffffffffff168673ffffffffffffffffffffffffffffffffffffffff167f3746ccceb54f44c9b0ee0120e596168d07ec9f6ca303cfdd9810d3b2e2686a2e8560030154604051610bf79190611585565b60405180910390a38473ffffffffffffffffffffffffffffffffffffffff168673ffffffffffffffffffffffffffffffffffffffff167f2b6f2473aebafaf8d0889669490135928ec4454d2e29a103fd39693bbca6aef183604051610c5c9190611585565b60405180910390a3505050505050565b60015481565b60008060008373ffffffffffffffffffffffffffffffffffffffff1673ffffffffffffffffffffffffffffffffffffffff168152602001908152602001600020805490509050919050565b803414610cff576040517f08c379a0000000000000000000000000000000000000000000000000000000008152600401610cf690611896565b60405180910390fd5b60006040518061010001604052803373ffffffffffffffffffffffffffffffffffffffff1681526020018673ffffffffffffffffffffffffffffffffffffffff1681526020018581526020016000815260200184815260200183815260200160006002811115610d7257610d7161125e565b5b81526020016000151581525090506000803373ffffffffffffffffffffffffffffffffffffffff1673ffffffffffffffffffffffffffffffffffffffff16815260200190815260200160002081908060018154018082558091505060019003906000526020600020906007020160009091909190915060008201518160000160006101000a81548173ffffffffffffffffffffffffffffffffffffffff021916908373ffffffffffffffffffffffffffffffffffffffff16021790555060208201518160010160006101000a81548173ffffffffffffffffffffffffffffffffffffffff021916908373ffffffffffffffffffffffffffffffffffffffff16021790555060408201518160020155606082015181600301556080820151816004015560a0820151816005015560c08201518160060160006101000a81548160ff02191690836002811115610ec957610ec861125e565b5b021790555060e08201518160060160016101000a81548160ff021916908315150217905550505060016000815480929190610f03906118e5565b919050555060026040518061010001604052803373ffffffffffffffffffffffffffffffffffffffff1681526020018773ffffffffffffffffffffffffffffffffffffffff1681526020018681526020016000815260200185815260200184815260200160006002811115610f7b57610f7a61125e565b5b815260200160001515815250908060018154018082558091505060019003906000526020600020906007020160009091909190915060008201518160000160006101000a81548173ffffffffffffffffffffffffffffffffffffffff021916908373ffffffffffffffffffffffffffffffffffffffff16021790555060208201518160010160006101000a81548173ffffffffffffffffffffffffffffffffffffffff021916908373ffffffffffffffffffffffffffffffffffffffff16021790555060408201518160020155606082015181600301556080820151816004015560a0820151816005015560c08201518160060160006101000a81548160ff021916908360028111156110915761109061125e565b5b021790555060e08201518160060160016101000a81548160ff02191690831515021790555050508473ffffffffffffffffffffffffffffffffffffffff163373ffffffffffffffffffffffffffffffffffffffff167f5001b34ecf2db5b7bbeddcbbe761ec9ecadcc7638018b98ce3e24995b0e946b68686866040516111199392919061192e565b60405180910390a35050505050565b600080fd5b600073ffffffffffffffffffffffffffffffffffffffff82169050919050565b60006111588261112d565b9050919050565b6111688161114d565b811461117357600080fd5b50565b6000813590506111858161115f565b92915050565b6000819050919050565b61119e8161118b565b81146111a957600080fd5b50565b6000813590506111bb81611195565b92915050565b6000806000606084860312156111da576111d9611128565b5b60006111e886828701611176565b93505060206111f9868287016111ac565b925050604061120a86828701611176565b9150509250925092565b600081519050919050565b600082825260208201905092915050565b6000819050602082019050919050565b6112498161114d565b82525050565b6112588161118b565b82525050565b7f4e487b7100000000000000000000000000000000000000000000000000000000600052602160045260246000fd5b6003811061129e5761129d61125e565b5b50565b60008190506112af8261128d565b919050565b60006112bf826112a1565b9050919050565b6112cf816112b4565b82525050565b60008115159050919050565b6112ea816112d5565b82525050565b610100820160008201516113076000850182611240565b50602082015161131a6020850182611240565b50604082015161132d604085018261124f565b506060820151611340606085018261124f565b506080820151611353608085018261124f565b5060a082015161136660a085018261124f565b5060c082015161137960c08501826112c6565b5060e082015161138c60e08501826112e1565b50505050565b600061139e83836112f0565b6101008301905092915050565b6000602082019050919050565b60006113c382611214565b6113cd818561121f565b93506113d883611230565b8060005b838110156114095781516113f08882611392565b97506113fb836113ab565b9250506001810190506113dc565b5085935050505092915050565b6000602082019050818103600083015261143081846113b8565b905092915050565b6000806040838503121561144f5761144e611128565b5b600061145d85828601611176565b925050602061146e858286016111ac565b9150509250929050565b6114818161114d565b82525050565b6114908161118b565b82525050565b61149f816112b4565b82525050565b6114ae816112d5565b82525050565b6000610100820190506114ca600083018b611478565b6114d7602083018a611478565b6114e46040830189611487565b6114f16060830188611487565b6114fe6080830187611487565b61150b60a0830186611487565b61151860c0830185611496565b61152560e08301846114a5565b9998505050505050505050565b60008060006060848603121561154b5761154a611128565b5b600061155986828701611176565b935050602061156a86828701611176565b925050604061157b868287016111ac565b9150509250925092565b600060208201905061159a6000830184611487565b92915050565b6000602082840312156115b6576115b5611128565b5b60006115c484828501611176565b91505092915050565b600080600080608085870312156115e7576115e6611128565b5b60006115f587828801611176565b9450506020611606878288016111ac565b9350506040611617878288016111ac565b9250506060611628878288016111ac565b91505092959194509250565b7f4e487b7100000000000000000000000000000000000000000000000000000000600052603260045260246000fd5b600082825260208201905092915050565b7f496e76616c69642072656365697665722e000000000000000000000000000000600082015250565b60006116aa601183611663565b91506116b582611674565b602082019050919050565b600060208201905081810360008301526116d98161169d565b9050919050565b7f536869706d656e7420616c726561647920696e207472616e7369740000000000600082015250565b6000611716601b83611663565b9150611721826116e0565b602082019050919050565b6000602082019050818103600083015261174581611709565b9050919050565b7f536869706d656e74206e6f7420696e207472616e7369742e0000000000000000600082015250565b6000611782601883611663565b915061178d8261174c565b602082019050919050565b600060208201905081810360008301526117b181611775565b9050919050565b7f536869706d656e7420697320616c726561647920706169642e00000000000000600082015250565b60006117ee601983611663565b91506117f9826117b8565b602082019050919050565b6000602082019050818103600083015261181d816117e1565b9050919050565b7f5061796d656e7420616d6f756e74206d757374206d617463682074686520707260008201527f6963652e00000000000000000000000000000000000000000000000000000000602082015250565b6000611880602483611663565b915061188b82611824565b604082019050919050565b600060208201905081810360008301526118af81611873565b9050919050565b7f4e487b7100000000000000000000000000000000000000000000000000000000600052601160045260246000fd5b60006118f08261118b565b91507fffffffffffffffffffffffffffffffffffffffffffffffffffffffffffffffff821415611923576119226118b6565b5b600182019050919050565b60006060820190506119436000830186611487565b6119506020830185611487565b61195d6040830184611487565b94935050505056fea26469706673582212206bfba3120501ce317f8816c1d65ee086ae70baa0d37004ffb7589b582f1608ae64736f6c63430008090033",
  "linkReferences": {},
  "deployedLinkReferences": {}
}